{
  "_format": "hh-sol-artifact-1",
  "contractName": "Auction",
  "sourceName": "contracts/Auction.sol",
  "abi": [
    {
      "inputs": [
        {
          "internalType": "contract ISuperfluid",
          "name": "_host",
          "type": "address"
        },
        {
          "internalType": "contract IConstantFlowAgreementV1",
          "name": "_cfa",
          "type": "address"
        },
        {
          "internalType": "contract ISuperToken",
          "name": "_superToken",
          "type": "address"
        },
        {
          "internalType": "int96",
          "name": "_markup",
          "type": "int96"
        }
      ],
      "stateMutability": "nonpayable",
      "type": "constructor"
    },
    {
      "inputs": [
        {
          "internalType": "contract ISuperToken",
          "name": "_superToken",
          "type": "address"
        },
        {
          "internalType": "address",
          "name": "_agreementClass",
          "type": "address"
        },
        {
          "internalType": "bytes32",
          "name": "_agreementId",
          "type": "bytes32"
        },
        {
          "internalType": "bytes",
          "name": "",
          "type": "bytes"
        },
        {
          "internalType": "bytes",
          "name": "",
          "type": "bytes"
        },
        {
          "internalType": "bytes",
          "name": "_ctx",
          "type": "bytes"
        }
      ],
      "name": "afterAgreementCreated",
      "outputs": [
        {
          "internalType": "bytes",
          "name": "",
          "type": "bytes"
        }
      ],
      "stateMutability": "nonpayable",
      "type": "function"
    },
    {
      "inputs": [
        {
          "internalType": "contract ISuperToken",
          "name": "_superToken",
          "type": "address"
        },
        {
          "internalType": "address",
          "name": "_agreementClass",
          "type": "address"
        },
        {
          "internalType": "bytes32",
          "name": "_agreementId",
          "type": "bytes32"
        },
        {
          "internalType": "bytes",
          "name": "_agreementData",
          "type": "bytes"
        },
        {
          "internalType": "bytes",
          "name": "",
          "type": "bytes"
        },
        {
          "internalType": "bytes",
          "name": "_ctx",
          "type": "bytes"
        }
      ],
      "name": "afterAgreementTerminated",
      "outputs": [
        {
          "internalType": "bytes",
          "name": "",
          "type": "bytes"
        }
      ],
      "stateMutability": "nonpayable",
      "type": "function"
    },
    {
      "inputs": [
        {
          "internalType": "contract ISuperToken",
          "name": "_superToken",
          "type": "address"
        },
        {
          "internalType": "address",
          "name": "_agreementClass",
          "type": "address"
        },
        {
          "internalType": "bytes32",
          "name": "_agreementId",
          "type": "bytes32"
        },
        {
          "internalType": "bytes",
          "name": "",
          "type": "bytes"
        },
        {
          "internalType": "bytes",
          "name": "",
          "type": "bytes"
        },
        {
          "internalType": "bytes",
          "name": "_ctx",
          "type": "bytes"
        }
      ],
      "name": "afterAgreementUpdated",
      "outputs": [
        {
          "internalType": "bytes",
          "name": "",
          "type": "bytes"
        }
      ],
      "stateMutability": "nonpayable",
      "type": "function"
    },
    {
      "inputs": [
        {
          "internalType": "contract ISuperToken",
          "name": "",
          "type": "address"
        },
        {
          "internalType": "address",
          "name": "",
          "type": "address"
        },
        {
          "internalType": "bytes32",
          "name": "",
          "type": "bytes32"
        },
        {
          "internalType": "bytes",
          "name": "",
          "type": "bytes"
        },
        {
          "internalType": "bytes",
          "name": "",
          "type": "bytes"
        }
      ],
      "name": "beforeAgreementCreated",
      "outputs": [
        {
          "internalType": "bytes",
          "name": "",
          "type": "bytes"
        }
      ],
      "stateMutability": "view",
      "type": "function"
    },
    {
      "inputs": [
        {
          "internalType": "contract ISuperToken",
          "name": "",
          "type": "address"
        },
        {
          "internalType": "address",
          "name": "",
          "type": "address"
        },
        {
          "internalType": "bytes32",
          "name": "",
          "type": "bytes32"
        },
        {
          "internalType": "bytes",
          "name": "",
          "type": "bytes"
        },
        {
          "internalType": "bytes",
          "name": "",
          "type": "bytes"
        }
      ],
      "name": "beforeAgreementTerminated",
      "outputs": [
        {
          "internalType": "bytes",
          "name": "",
          "type": "bytes"
        }
      ],
      "stateMutability": "view",
      "type": "function"
    },
    {
      "inputs": [
        {
          "internalType": "contract ISuperToken",
          "name": "",
          "type": "address"
        },
        {
          "internalType": "address",
          "name": "",
          "type": "address"
        },
        {
          "internalType": "bytes32",
          "name": "",
          "type": "bytes32"
        },
        {
          "internalType": "bytes",
          "name": "",
          "type": "bytes"
        },
        {
          "internalType": "bytes",
          "name": "",
          "type": "bytes"
        }
      ],
      "name": "beforeAgreementUpdated",
      "outputs": [
        {
          "internalType": "bytes",
          "name": "",
          "type": "bytes"
        }
      ],
      "stateMutability": "view",
      "type": "function"
    },
    {
      "inputs": [
        {
          "internalType": "address",
          "name": "",
          "type": "address"
        }
      ],
      "name": "bidders",
      "outputs": [
        {
          "internalType": "int96",
          "name": "flowRate",
          "type": "int96"
        },
        {
          "internalType": "address",
          "name": "next",
          "type": "address"
        },
        {
          "internalType": "address",
          "name": "prev",
          "type": "address"
        }
      ],
      "stateMutability": "view",
      "type": "function"
    },
    {
      "inputs": [],
      "name": "minStep",
      "outputs": [
        {
          "internalType": "int96",
          "name": "",
          "type": "int96"
        }
      ],
      "stateMutability": "view",
      "type": "function"
    },
    {
      "inputs": [],
      "name": "winner",
      "outputs": [
        {
          "internalType": "address",
          "name": "",
          "type": "address"
        }
      ],
      "stateMutability": "view",
      "type": "function"
    }
  ],
  "bytecode": "0x60806040526001600260146101000a8154816bffffffffffffffffffffffff0219169083600b0b6bffffffffffffffffffffffff160217905550620186a06003600c6101000a8154816bffffffffffffffffffffffff0219169083600b0b6bffffffffffffffffffffffff16021790555030600660006101000a81548173ffffffffffffffffffffffffffffffffffffffff021916908373ffffffffffffffffffffffffffffffffffffffff160217905550348015620000be57600080fd5b506040516200445e3803806200445e8339818101604052810190620000e491906200052e565b600073ffffffffffffffffffffffffffffffffffffffff168473ffffffffffffffffffffffffffffffffffffffff16141562000157576040517f08c379a00000000000000000000000000000000000000000000000000000000081526004016200014e9062000601565b60405180910390fd5b600073ffffffffffffffffffffffffffffffffffffffff168373ffffffffffffffffffffffffffffffffffffffff161415620001ca576040517f08c379a0000000000000000000000000000000000000000000000000000000008152600401620001c19062000673565b60405180910390fd5b600073ffffffffffffffffffffffffffffffffffffffff168273ffffffffffffffffffffffffffffffffffffffff1614156200023d576040517f08c379a00000000000000000000000000000000000000000000000000000000081526004016200023490620006e5565b60405180910390fd5b836000806101000a81548173ffffffffffffffffffffffffffffffffffffffff021916908373ffffffffffffffffffffffffffffffffffffffff16021790555082600160006101000a81548173ffffffffffffffffffffffffffffffffffffffff021916908373ffffffffffffffffffffffffffffffffffffffff16021790555081600260006101000a81548173ffffffffffffffffffffffffffffffffffffffff021916908373ffffffffffffffffffffffffffffffffffffffff16021790555080600360006101000a8154816bffffffffffffffffffffffff0219169083600b0b6bffffffffffffffffffffffff16021790555060006410000000006404000000006401000000006001171717905060008054906101000a900473ffffffffffffffffffffffffffffffffffffffff1673ffffffffffffffffffffffffffffffffffffffff1663ad3915c8826040518263ffffffff1660e01b8152600401620003a9919062000722565b600060405180830381600087803b158015620003c457600080fd5b505af1158015620003d9573d6000803e3d6000fd5b5050505050505050506200073f565b600080fd5b600073ffffffffffffffffffffffffffffffffffffffff82169050919050565b60006200041a82620003ed565b9050919050565b60006200042e826200040d565b9050919050565b620004408162000421565b81146200044c57600080fd5b50565b600081519050620004608162000435565b92915050565b600062000473826200040d565b9050919050565b620004858162000466565b81146200049157600080fd5b50565b600081519050620004a5816200047a565b92915050565b6000620004b8826200040d565b9050919050565b620004ca81620004ab565b8114620004d657600080fd5b50565b600081519050620004ea81620004bf565b92915050565b600081600b0b9050919050565b6200050881620004f0565b81146200051457600080fd5b50565b6000815190506200052881620004fd565b92915050565b600080600080608085870312156200054b576200054a620003e8565b5b60006200055b878288016200044f565b94505060206200056e8782880162000494565b93505060406200058187828801620004d9565b9250506060620005948782880162000517565b91505092959194509250565b600082825260208201905092915050565b7f686f7374206973206e696c000000000000000000000000000000000000000000600082015250565b6000620005e9600b83620005a0565b9150620005f682620005b1565b602082019050919050565b600060208201905081810360008301526200061c81620005da565b9050919050565b7f636661206973206e696c00000000000000000000000000000000000000000000600082015250565b60006200065b600a83620005a0565b9150620006688262000623565b602082019050919050565b600060208201905081810360008301526200068e816200064c565b9050919050565b7f7375706572546f6b656e31206973206e696c0000000000000000000000000000600082015250565b6000620006cd601283620005a0565b9150620006da8262000695565b602082019050919050565b600060208201905081810360008301526200070081620006be565b9050919050565b6000819050919050565b6200071c8162000707565b82525050565b600060208201905062000739600083018462000711565b92915050565b613d0f806200074f6000396000f3fe608060405234801561001057600080fd5b50600436106100935760003560e01c80635f9e7d77116100665780635f9e7d7714610146578063884d1f4014610176578063d86ed3e5146101a6578063dfbf53ae146101d6578063fcc8f793146101f457610093565b8063230dbd291461009857806330d9c915146100c8578063492674a9146100f857806353c11f9914610116575b600080fd5b6100b260048036038101906100ad9190612bc2565b610226565b6040516100bf9190612d4a565b60405180910390f35b6100e260048036038101906100dd9190612d6c565b610364565b6040516100ef9190612d4a565b60405180910390f35b6101006103a1565b60405161010d9190612e44565b60405180910390f35b610130600480360381019061012b9190612bc2565b6103b4565b60405161013d9190612d4a565b60405180910390f35b610160600480360381019061015b9190612d6c565b6104e1565b60405161016d9190612d4a565b60405180910390f35b610190600480360381019061018b9190612d6c565b61051e565b60405161019d9190612d4a565b60405180910390f35b6101c060048036038101906101bb9190612bc2565b61055b565b6040516101cd9190612d4a565b60405180910390f35b6101de610699565b6040516101eb9190612e6e565b60405180910390f35b61020e60048036038101906102099190612e89565b6106bf565b60405161021d93929190612eb6565b60405180910390f35b6060898961023382610736565b610272576040517f08c379a000000000000000000000000000000000000000000000000000000000815260040161026990612f4a565b60405180910390fd5b61027b81610790565b6102ba576040517f08c379a00000000000000000000000000000000000000000000000000000000081526004016102b190612fb6565b60405180910390fd5b60008054906101000a900473ffffffffffffffffffffffffffffffffffffffff1673ffffffffffffffffffffffffffffffffffffffff163373ffffffffffffffffffffffffffffffffffffffff1614610348576040517f08c379a000000000000000000000000000000000000000000000000000000000815260040161033f90613048565b60405180910390fd5b61035385858c610839565b925050509998505050505050505050565b60606040517f08c379a0000000000000000000000000000000000000000000000000000000008152600401610398906130da565b60405180910390fd5b600260149054906101000a9004600b0b81565b606060008054906101000a900473ffffffffffffffffffffffffffffffffffffffff1673ffffffffffffffffffffffffffffffffffffffff163373ffffffffffffffffffffffffffffffffffffffff1614610444576040517f08c379a000000000000000000000000000000000000000000000000000000000815260040161043b90613048565b60405180910390fd5b61044d8a610736565b158061045f575061045d89610790565b155b156104b05782828080601f016020809104026020016040519081016040528093929190818152602001838380828437600081840152601f19601f8201169050808301925050505050505090506104d4565b600087878101906104c19190613138565b5090506104d084848b84611327565b9150505b9998505050505050505050565b60606040517f08c379a0000000000000000000000000000000000000000000000000000000008152600401610515906131ea565b60405180910390fd5b60606040517f08c379a00000000000000000000000000000000000000000000000000000000081526004016105529061327c565b60405180910390fd5b6060898961056882610736565b6105a7576040517f08c379a000000000000000000000000000000000000000000000000000000000815260040161059e90612f4a565b60405180910390fd5b6105b081610790565b6105ef576040517f08c379a00000000000000000000000000000000000000000000000000000000081526004016105e690612fb6565b60405180910390fd5b60008054906101000a900473ffffffffffffffffffffffffffffffffffffffff1673ffffffffffffffffffffffffffffffffffffffff163373ffffffffffffffffffffffffffffffffffffffff161461067d576040517f08c379a000000000000000000000000000000000000000000000000000000000815260040161067490613048565b60405180910390fd5b61068885858c6119fd565b925050509998505050505050505050565b600660009054906101000a900473ffffffffffffffffffffffffffffffffffffffff1681565b60056020528060005260406000206000915090508060000160009054906101000a9004600b0b9080600001600c9054906101000a900473ffffffffffffffffffffffffffffffffffffffff16908060010160009054906101000a900473ffffffffffffffffffffffffffffffffffffffff16905083565b6000600260009054906101000a900473ffffffffffffffffffffffffffffffffffffffff1673ffffffffffffffffffffffffffffffffffffffff168273ffffffffffffffffffffffffffffffffffffffff16149050919050565b60007fa9214cc96615e0085d3bb077758db69497dc2dce3b2b1e97bc93c3d18d83efd38273ffffffffffffffffffffffffffffffffffffffff16637730599e6040518163ffffffff1660e01b815260040160206040518083038186803b1580156107f957600080fd5b505afa15801561080d573d6000803e3d6000fd5b505050506040513d601f19601f8201168201806040525081019061083191906132b1565b149050919050565b606060008060009054906101000a900473ffffffffffffffffffffffffffffffffffffffff1673ffffffffffffffffffffffffffffffffffffffff16633f6c923a86866040518363ffffffff1660e01b815260040161089992919061331a565b60006040518083038186803b1580156108b157600080fd5b505afa1580156108c5573d6000803e3d6000fd5b505050506040513d6000823e3d601f19601f820116820180604052508101906108ee91906136e1565b6060015190506000600160009054906101000a900473ffffffffffffffffffffffffffffffffffffffff1673ffffffffffffffffffffffffffffffffffffffff1663aabd2668600260009054906101000a900473ffffffffffffffffffffffffffffffffffffffff16866040518363ffffffff1660e01b8152600401610975929190613798565b60806040518083038186803b15801561098d57600080fd5b505afa1580156109a1573d6000803e3d6000fd5b505050506040513d601f19601f820116820180604052508101906109c591906137ed565b5050915050600260149054906101000a9004600b0b600b0b6003600c9054906101000a9004600b0b826109f89190613883565b600b0b1215610a3c576040517f08c379a0000000000000000000000000000000000000000000000000000000008152600401610a33906139e4565b60405180910390fd5b85858080601f016020809104026020016040519081016040528093929190818152602001838380828437600081840152601f19601f820116905080830192505050505050509250600660009054906101000a900473ffffffffffffffffffffffffffffffffffffffff1673ffffffffffffffffffffffffffffffffffffffff168273ffffffffffffffffffffffffffffffffffffffff161415610f675760006003600c9054906101000a9004600b0b600360009054906101000a9004600b0b610b059190613a04565b60056000600560008773ffffffffffffffffffffffffffffffffffffffff1673ffffffffffffffffffffffffffffffffffffffff168152602001908152602001600020600001600c9054906101000a900473ffffffffffffffffffffffffffffffffffffffff1673ffffffffffffffffffffffffffffffffffffffff1673ffffffffffffffffffffffffffffffffffffffff16815260200190815260200160002060000160009054906101000a9004600b0b610bc19190613883565b9050806003600c9054906101000a9004600b0b60056000600560008873ffffffffffffffffffffffffffffffffffffffff1673ffffffffffffffffffffffffffffffffffffffff168152602001908152602001600020600001600c9054906101000a900473ffffffffffffffffffffffffffffffffffffffff1673ffffffffffffffffffffffffffffffffffffffff1673ffffffffffffffffffffffffffffffffffffffff16815260200190815260200160002060000160009054906101000a9004600b0b610c909190613883565b610c9a9190613a84565b600b0b6003600c9054906101000a9004600b0b83610cb89190613883565b600b0b1315610da25781600560008573ffffffffffffffffffffffffffffffffffffffff1673ffffffffffffffffffffffffffffffffffffffff16815260200190815260200160002060000160006101000a8154816bffffffffffffffffffffffff0219169083600b0b6bffffffffffffffffffffffff1602179055506003600c9054906101000a9004600b0b600360009054906101000a9004600b0b610d5f9190613a04565b82610d6a9190613883565b600260146101000a8154816bffffffffffffffffffffffff0219169083600b0b6bffffffffffffffffffffffff160217905550610f61565b80600260146101000a8154816bffffffffffffffffffffffff0219169083600b0b6bffffffffffffffffffffffff160217905550600560008473ffffffffffffffffffffffffffffffffffffffff1673ffffffffffffffffffffffffffffffffffffffff168152602001908152602001600020600001600c9054906101000a900473ffffffffffffffffffffffffffffffffffffffff16600660006101000a81548173ffffffffffffffffffffffffffffffffffffffff021916908373ffffffffffffffffffffffffffffffffffffffff1602179055503060056000600660009054906101000a900473ffffffffffffffffffffffffffffffffffffffff1673ffffffffffffffffffffffffffffffffffffffff1673ffffffffffffffffffffffffffffffffffffffff16815260200190815260200160002060010160006101000a81548173ffffffffffffffffffffffffffffffffffffffff021916908373ffffffffffffffffffffffffffffffffffffffff160217905550610f4884600660009054906101000a900473ffffffffffffffffffffffffffffffffffffffff16611dd6565b9350610f548383611fe1565b610f5e8484612379565b93505b5061131e565b600560008373ffffffffffffffffffffffffffffffffffffffff1673ffffffffffffffffffffffffffffffffffffffff168152602001908152602001600020600001600c9054906101000a900473ffffffffffffffffffffffffffffffffffffffff1660056000600560008673ffffffffffffffffffffffffffffffffffffffff1673ffffffffffffffffffffffffffffffffffffffff16815260200190815260200160002060010160009054906101000a900473ffffffffffffffffffffffffffffffffffffffff1673ffffffffffffffffffffffffffffffffffffffff1673ffffffffffffffffffffffffffffffffffffffff168152602001908152602001600020600001600c6101000a81548173ffffffffffffffffffffffffffffffffffffffff021916908373ffffffffffffffffffffffffffffffffffffffff160217905550600560008373ffffffffffffffffffffffffffffffffffffffff1673ffffffffffffffffffffffffffffffffffffffff16815260200190815260200160002060010160009054906101000a900473ffffffffffffffffffffffffffffffffffffffff1660056000600560008673ffffffffffffffffffffffffffffffffffffffff1673ffffffffffffffffffffffffffffffffffffffff168152602001908152602001600020600001600c9054906101000a900473ffffffffffffffffffffffffffffffffffffffff1673ffffffffffffffffffffffffffffffffffffffff1673ffffffffffffffffffffffffffffffffffffffff16815260200190815260200160002060010160006101000a81548173ffffffffffffffffffffffffffffffffffffffff021916908373ffffffffffffffffffffffffffffffffffffffff160217905550600260149054906101000a9004600b0b6003600c9054906101000a9004600b0b60056000600660009054906101000a900473ffffffffffffffffffffffffffffffffffffffff1673ffffffffffffffffffffffffffffffffffffffff1673ffffffffffffffffffffffffffffffffffffffff16815260200190815260200160002060000160009054906101000a9004600b0b61128d9190613883565b6112979190613a84565b600b0b6003600c9054906101000a9004600b0b826112b59190613883565b600b0b12611306576112c78383611dd6565b92506112f583600660009054906101000a900473ffffffffffffffffffffffffffffffffffffffff16612379565b92506113018282612595565b61131d565b6113108282611fe1565b61131a838361285b565b92505b5b50509392505050565b6060600660009054906101000a900473ffffffffffffffffffffffffffffffffffffffff1673ffffffffffffffffffffffffffffffffffffffff168273ffffffffffffffffffffffffffffffffffffffff16141561166b57600560008373ffffffffffffffffffffffffffffffffffffffff1673ffffffffffffffffffffffffffffffffffffffff168152602001908152602001600020600001600c9054906101000a900473ffffffffffffffffffffffffffffffffffffffff16600660006101000a81548173ffffffffffffffffffffffffffffffffffffffff021916908373ffffffffffffffffffffffffffffffffffffffff1602179055503060056000600660009054906101000a900473ffffffffffffffffffffffffffffffffffffffff1673ffffffffffffffffffffffffffffffffffffffff1673ffffffffffffffffffffffffffffffffffffffff16815260200190815260200160002060010160006101000a81548173ffffffffffffffffffffffffffffffffffffffff021916908373ffffffffffffffffffffffffffffffffffffffff1602179055503073ffffffffffffffffffffffffffffffffffffffff16600660009054906101000a900473ffffffffffffffffffffffffffffffffffffffff1673ffffffffffffffffffffffffffffffffffffffff16146116665761158a85858080601f016020809104026020016040519081016040528093929190818152602001838380828437600081840152601f19601f82011690508083019250505050505050600660009054906101000a900473ffffffffffffffffffffffffffffffffffffffff16611dd6565b90506003600c9054906101000a9004600b0b600360009054906101000a9004600b0b6115b69190613a04565b60056000600660009054906101000a900473ffffffffffffffffffffffffffffffffffffffff1673ffffffffffffffffffffffffffffffffffffffff1673ffffffffffffffffffffffffffffffffffffffff16815260200190815260200160002060000160009054906101000a9004600b0b6116329190613883565b600260146101000a8154816bffffffffffffffffffffffff0219169083600b0b6bffffffffffffffffffffffff1602179055505b611946565b6116b985858080601f016020809104026020016040519081016040528093929190818152602001838380828437600081840152601f19601f8201169050808301925050505050505083611dd6565b9050600560008373ffffffffffffffffffffffffffffffffffffffff1673ffffffffffffffffffffffffffffffffffffffff168152602001908152602001600020600001600c9054906101000a900473ffffffffffffffffffffffffffffffffffffffff1660056000600560008673ffffffffffffffffffffffffffffffffffffffff1673ffffffffffffffffffffffffffffffffffffffff16815260200190815260200160002060010160009054906101000a900473ffffffffffffffffffffffffffffffffffffffff1673ffffffffffffffffffffffffffffffffffffffff1673ffffffffffffffffffffffffffffffffffffffff168152602001908152602001600020600001600c6101000a81548173ffffffffffffffffffffffffffffffffffffffff021916908373ffffffffffffffffffffffffffffffffffffffff160217905550600560008373ffffffffffffffffffffffffffffffffffffffff1673ffffffffffffffffffffffffffffffffffffffff16815260200190815260200160002060010160009054906101000a900473ffffffffffffffffffffffffffffffffffffffff1660056000600560008673ffffffffffffffffffffffffffffffffffffffff1673ffffffffffffffffffffffffffffffffffffffff168152602001908152602001600020600001600c9054906101000a900473ffffffffffffffffffffffffffffffffffffffff1673ffffffffffffffffffffffffffffffffffffffff1673ffffffffffffffffffffffffffffffffffffffff16815260200190815260200160002060010160006101000a81548173ffffffffffffffffffffffffffffffffffffffff021916908373ffffffffffffffffffffffffffffffffffffffff1602179055505b600560008373ffffffffffffffffffffffffffffffffffffffff1673ffffffffffffffffffffffffffffffffffffffff168152602001908152602001600020600080820160006101000a8154906bffffffffffffffffffffffff021916905560008201600c6101000a81549073ffffffffffffffffffffffffffffffffffffffff02191690556001820160006101000a81549073ffffffffffffffffffffffffffffffffffffffff02191690555050949350505050565b606083838080601f016020809104026020016040519081016040528093929190818152602001838380828437600081840152601f19601f82011690508083019250505050505050905060008060009054906101000a900473ffffffffffffffffffffffffffffffffffffffff1673ffffffffffffffffffffffffffffffffffffffff16633f6c923a86866040518363ffffffff1660e01b8152600401611aa492919061331a565b60006040518083038186803b158015611abc57600080fd5b505afa158015611ad0573d6000803e3d6000fd5b505050506040513d6000823e3d601f19601f82011682018060405250810190611af991906136e1565b6060015190506000600160009054906101000a900473ffffffffffffffffffffffffffffffffffffffff1673ffffffffffffffffffffffffffffffffffffffff1663aabd2668600260009054906101000a900473ffffffffffffffffffffffffffffffffffffffff16866040518363ffffffff1660e01b8152600401611b80929190613798565b60806040518083038186803b158015611b9857600080fd5b505afa158015611bac573d6000803e3d6000fd5b505050506040513d601f19601f82011682018060405250810190611bd091906137ed565b5050915050600260149054906101000a9004600b0b600b0b6003600c9054906101000a9004600b0b82611c039190613883565b600b0b1215611c47576040517f08c379a0000000000000000000000000000000000000000000000000000000008152600401611c3e906139e4565b60405180910390fd5b3073ffffffffffffffffffffffffffffffffffffffff16600660009054906101000a900473ffffffffffffffffffffffffffffffffffffffff1673ffffffffffffffffffffffffffffffffffffffff161415611cac57611ca78282612595565b611dcd565b600260149054906101000a9004600b0b6003600c9054906101000a9004600b0b60056000600660009054906101000a900473ffffffffffffffffffffffffffffffffffffffff1673ffffffffffffffffffffffffffffffffffffffff1673ffffffffffffffffffffffffffffffffffffffff16815260200190815260200160002060000160009054906101000a9004600b0b611d489190613883565b611d529190613a84565b600b0b6003600c9054906101000a9004600b0b82611d709190613883565b600b0b12611db557611da483600660009054906101000a900473ffffffffffffffffffffffffffffffffffffffff16612379565b9250611db08282612595565b611dcc565b611dbf8282611fe1565b611dc98383612379565b92505b5b50509392505050565b6060600073ffffffffffffffffffffffffffffffffffffffff168273ffffffffffffffffffffffffffffffffffffffff161415611e1557829050611fdb565b60008054906101000a900473ffffffffffffffffffffffffffffffffffffffff1673ffffffffffffffffffffffffffffffffffffffff16634329d293600160009054906101000a900473ffffffffffffffffffffffffffffffffffffffff1663b4b333c660e01b600260009054906101000a900473ffffffffffffffffffffffffffffffffffffffff163087600067ffffffffffffffff811115611ebc57611ebb613343565b5b6040519080825280601f01601f191660200182016040528015611eee5781602001600182028036833780820191505090505b50604051602401611f029493929190613b04565b604051602081830303815290604052907bffffffffffffffffffffffffffffffffffffffffffffffffffffffff19166020820180517bffffffffffffffffffffffffffffffffffffffffffffffffffffffff8381831617835250505050866040518463ffffffff1660e01b8152600401611f7e93929190613bbd565b600060405180830381600087803b158015611f9857600080fd5b505af1158015611fac573d6000803e3d6000fd5b505050506040513d6000823e3d601f19601f82011682018060405250810190611fd59190613c15565b50809150505b92915050565b6000600660009054906101000a900473ffffffffffffffffffffffffffffffffffffffff16905060005b819050600560008273ffffffffffffffffffffffffffffffffffffffff1673ffffffffffffffffffffffffffffffffffffffff168152602001908152602001600020600001600c9054906101000a900473ffffffffffffffffffffffffffffffffffffffff169150600260149054906101000a9004600b0b6003600c9054906101000a9004600b0b600560008573ffffffffffffffffffffffffffffffffffffffff1673ffffffffffffffffffffffffffffffffffffffff16815260200190815260200160002060000160009054906101000a9004600b0b6120ed9190613883565b6120f79190613a84565b600b0b6003600c9054906101000a9004600b0b846121159190613883565b600b0b1261200b57604051806060016040528084600b0b81526020018373ffffffffffffffffffffffffffffffffffffffff1681526020018273ffffffffffffffffffffffffffffffffffffffff16815250600560008673ffffffffffffffffffffffffffffffffffffffff1673ffffffffffffffffffffffffffffffffffffffff16815260200190815260200160002060008201518160000160006101000a8154816bffffffffffffffffffffffff0219169083600b0b6bffffffffffffffffffffffff160217905550602082015181600001600c6101000a81548173ffffffffffffffffffffffffffffffffffffffff021916908373ffffffffffffffffffffffffffffffffffffffff16021790555060408201518160010160006101000a81548173ffffffffffffffffffffffffffffffffffffffff021916908373ffffffffffffffffffffffffffffffffffffffff16021790555090505083600560008373ffffffffffffffffffffffffffffffffffffffff1673ffffffffffffffffffffffffffffffffffffffff168152602001908152602001600020600001600c6101000a81548173ffffffffffffffffffffffffffffffffffffffff021916908373ffffffffffffffffffffffffffffffffffffffff16021790555083600560008473ffffffffffffffffffffffffffffffffffffffff1673ffffffffffffffffffffffffffffffffffffffff16815260200190815260200160002060010160006101000a81548173ffffffffffffffffffffffffffffffffffffffff021916908373ffffffffffffffffffffffffffffffffffffffff16021790555050505050565b606060008054906101000a900473ffffffffffffffffffffffffffffffffffffffff1673ffffffffffffffffffffffffffffffffffffffff16634329d293600160009054906101000a900473ffffffffffffffffffffffffffffffffffffffff166362fc305e60e01b600260009054906101000a900473ffffffffffffffffffffffffffffffffffffffff1686600560008973ffffffffffffffffffffffffffffffffffffffff1673ffffffffffffffffffffffffffffffffffffffff16815260200190815260200160002060000160009054906101000a9004600b0b600067ffffffffffffffff81111561247157612470613343565b5b6040519080825280601f01601f1916602001820160405280156124a35781602001600182028036833780820191505090505b506040516024016124b79493929190613c8d565b604051602081830303815290604052907bffffffffffffffffffffffffffffffffffffffffffffffffffffffff19166020820180517bffffffffffffffffffffffffffffffffffffffffffffffffffffffff8381831617835250505050866040518463ffffffff1660e01b815260040161253393929190613bbd565b600060405180830381600087803b15801561254d57600080fd5b505af1158015612561573d6000803e3d6000fd5b505050506040513d6000823e3d601f19601f8201168201806040525081019061258a9190613c15565b508091505092915050565b604051806060016040528082600b0b8152602001600660009054906101000a900473ffffffffffffffffffffffffffffffffffffffff1673ffffffffffffffffffffffffffffffffffffffff1681526020013073ffffffffffffffffffffffffffffffffffffffff16815250600560008473ffffffffffffffffffffffffffffffffffffffff1673ffffffffffffffffffffffffffffffffffffffff16815260200190815260200160002060008201518160000160006101000a8154816bffffffffffffffffffffffff0219169083600b0b6bffffffffffffffffffffffff160217905550602082015181600001600c6101000a81548173ffffffffffffffffffffffffffffffffffffffff021916908373ffffffffffffffffffffffffffffffffffffffff16021790555060408201518160010160006101000a81548173ffffffffffffffffffffffffffffffffffffffff021916908373ffffffffffffffffffffffffffffffffffffffff1602179055509050508160056000600660009054906101000a900473ffffffffffffffffffffffffffffffffffffffff1673ffffffffffffffffffffffffffffffffffffffff1673ffffffffffffffffffffffffffffffffffffffff16815260200190815260200160002060010160006101000a81548173ffffffffffffffffffffffffffffffffffffffff021916908373ffffffffffffffffffffffffffffffffffffffff16021790555081600660006101000a81548173ffffffffffffffffffffffffffffffffffffffff021916908373ffffffffffffffffffffffffffffffffffffffff1602179055506003600c9054906101000a9004600b0b600360009054906101000a9004600b0b6128199190613a04565b816128249190613883565b600260146101000a8154816bffffffffffffffffffffffff0219169083600b0b6bffffffffffffffffffffffff1602179055505050565b606060008054906101000a900473ffffffffffffffffffffffffffffffffffffffff1673ffffffffffffffffffffffffffffffffffffffff16634329d293600160009054906101000a900473ffffffffffffffffffffffffffffffffffffffff166350209a6260e01b600260009054906101000a900473ffffffffffffffffffffffffffffffffffffffff1686600560008973ffffffffffffffffffffffffffffffffffffffff1673ffffffffffffffffffffffffffffffffffffffff16815260200190815260200160002060000160009054906101000a9004600b0b600067ffffffffffffffff81111561295357612952613343565b5b6040519080825280601f01601f1916602001820160405280156129855781602001600182028036833780820191505090505b506040516024016129999493929190613c8d565b604051602081830303815290604052907bffffffffffffffffffffffffffffffffffffffffffffffffffffffff19166020820180517bffffffffffffffffffffffffffffffffffffffffffffffffffffffff8381831617835250505050866040518463ffffffff1660e01b8152600401612a1593929190613bbd565b600060405180830381600087803b158015612a2f57600080fd5b505af1158015612a43573d6000803e3d6000fd5b505050506040513d6000823e3d601f19601f82011682018060405250810190612a6c9190613c15565b508091505092915050565b6000604051905090565b600080fd5b600080fd5b600073ffffffffffffffffffffffffffffffffffffffff82169050919050565b6000612ab682612a8b565b9050919050565b6000612ac882612aab565b9050919050565b612ad881612abd565b8114612ae357600080fd5b50565b600081359050612af581612acf565b92915050565b612b0481612aab565b8114612b0f57600080fd5b50565b600081359050612b2181612afb565b92915050565b6000819050919050565b612b3a81612b27565b8114612b4557600080fd5b50565b600081359050612b5781612b31565b92915050565b600080fd5b600080fd5b600080fd5b60008083601f840112612b8257612b81612b5d565b5b8235905067ffffffffffffffff811115612b9f57612b9e612b62565b5b602083019150836001820283011115612bbb57612bba612b67565b5b9250929050565b600080600080600080600080600060c08a8c031215612be457612be3612a81565b5b6000612bf28c828d01612ae6565b9950506020612c038c828d01612b12565b9850506040612c148c828d01612b48565b97505060608a013567ffffffffffffffff811115612c3557612c34612a86565b5b612c418c828d01612b6c565b965096505060808a013567ffffffffffffffff811115612c6457612c63612a86565b5b612c708c828d01612b6c565b945094505060a08a013567ffffffffffffffff811115612c9357612c92612a86565b5b612c9f8c828d01612b6c565b92509250509295985092959850929598565b600081519050919050565b600082825260208201905092915050565b60005b83811015612ceb578082015181840152602081019050612cd0565b83811115612cfa576000848401525b50505050565b6000601f19601f8301169050919050565b6000612d1c82612cb1565b612d268185612cbc565b9350612d36818560208601612ccd565b612d3f81612d00565b840191505092915050565b60006020820190508181036000830152612d648184612d11565b905092915050565b600080600080600080600060a0888a031215612d8b57612d8a612a81565b5b6000612d998a828b01612ae6565b9750506020612daa8a828b01612b12565b9650506040612dbb8a828b01612b48565b955050606088013567ffffffffffffffff811115612ddc57612ddb612a86565b5b612de88a828b01612b6c565b9450945050608088013567ffffffffffffffff811115612e0b57612e0a612a86565b5b612e178a828b01612b6c565b925092505092959891949750929550565b600081600b0b9050919050565b612e3e81612e28565b82525050565b6000602082019050612e596000830184612e35565b92915050565b612e6881612aab565b82525050565b6000602082019050612e836000830184612e5f565b92915050565b600060208284031215612e9f57612e9e612a81565b5b6000612ead84828501612b12565b91505092915050565b6000606082019050612ecb6000830186612e35565b612ed86020830185612e5f565b612ee56040830184612e5f565b949350505050565b600082825260208201905092915050565b7f41756374696f6e3a206e6f7420616363657074656420746f6b656e7300000000600082015250565b6000612f34601c83612eed565b9150612f3f82612efe565b602082019050919050565b60006020820190508181036000830152612f6381612f27565b9050919050565b7f41756374696f6e3a206f6e6c7920434641763120737570706f72746564000000600082015250565b6000612fa0601d83612eed565b9150612fab82612f6a565b602082019050919050565b60006020820190508181036000830152612fcf81612f93565b9050919050565b7f5265646972656374416c6c3a20737570706f7274206f6e6c79206f6e6520686f60008201527f7374000000000000000000000000000000000000000000000000000000000000602082015250565b6000613032602283612eed565b915061303d82612fd6565b604082019050919050565b6000602082019050818103600083015261306181613025565b9050919050565b7f556e737570706f727465642063616c6c6261636b202d204265666f726520416760008201527f7265656d656e7420437265617465640000000000000000000000000000000000602082015250565b60006130c4602f83612eed565b91506130cf82613068565b604082019050919050565b600060208201905081810360008301526130f3816130b7565b9050919050565b600061310582612a8b565b9050919050565b613115816130fa565b811461312057600080fd5b50565b6000813590506131328161310c565b92915050565b6000806040838503121561314f5761314e612a81565b5b600061315d85828601613123565b925050602061316e85828601613123565b9150509250929050565b7f556e737570706f727465642063616c6c6261636b202d20204265666f7265204160008201527f677265656d656e74205465726d696e6174656400000000000000000000000000602082015250565b60006131d4603383612eed565b91506131df82613178565b604082019050919050565b60006020820190508181036000830152613203816131c7565b9050919050565b7f556e737570706f727465642063616c6c6261636b202d204265666f726520416760008201527f7265656d656e7420757064617465640000000000000000000000000000000000602082015250565b6000613266602f83612eed565b91506132718261320a565b604082019050919050565b6000602082019050818103600083015261329581613259565b9050919050565b6000815190506132ab81612b31565b92915050565b6000602082840312156132c7576132c6612a81565b5b60006132d58482850161329c565b91505092915050565b82818337600083830152505050565b60006132f98385612cbc565b93506133068385846132de565b61330f83612d00565b840190509392505050565b600060208201905081810360008301526133358184866132ed565b90509392505050565b600080fd5b7f4e487b7100000000000000000000000000000000000000000000000000000000600052604160045260246000fd5b61337b82612d00565b810181811067ffffffffffffffff8211171561339a57613399613343565b5b80604052505050565b60006133ad612a77565b90506133b98282613372565b919050565b600080fd5b600060ff82169050919050565b6133d9816133c3565b81146133e457600080fd5b50565b6000815190506133f6816133d0565b92915050565b6000819050919050565b61340f816133fc565b811461341a57600080fd5b50565b60008151905061342c81613406565b92915050565b60008151905061344181612afb565b92915050565b60007fffffffff0000000000000000000000000000000000000000000000000000000082169050919050565b61347c81613447565b811461348757600080fd5b50565b60008151905061349981613473565b92915050565b600080fd5b600067ffffffffffffffff8211156134bf576134be613343565b5b6134c882612d00565b9050602081019050919050565b60006134e86134e3846134a4565b6133a3565b9050828152602081018484840111156135045761350361349f565b5b61350f848285612ccd565b509392505050565b600082601f83011261352c5761352b612b5d565b5b815161353c8482602086016134d5565b91505092915050565b6000819050919050565b61355881613545565b811461356357600080fd5b50565b6000815190506135758161354f565b92915050565b600061358682612aab565b9050919050565b6135968161357b565b81146135a157600080fd5b50565b6000815190506135b38161358d565b92915050565b600061016082840312156135d0576135cf61333e565b5b6135db6101606133a3565b905060006135eb848285016133e7565b60008301525060206135ff848285016133e7565b60208301525060406136138482850161341d565b604083015250606061362784828501613432565b606083015250608061363b8482850161348a565b60808301525060a082015167ffffffffffffffff81111561365f5761365e6133be565b5b61366b84828501613517565b60a08301525060c061367f8482850161341d565b60c08301525060e06136938482850161341d565b60e0830152506101006136a884828501613566565b610100830152506101206136be84828501613432565b610120830152506101406136d4848285016135a4565b6101408301525092915050565b6000602082840312156136f7576136f6612a81565b5b600082015167ffffffffffffffff81111561371557613714612a86565b5b613721848285016135b9565b91505092915050565b6000819050919050565b600061374f61374a61374584612a8b565b61372a565b612a8b565b9050919050565b600061376182613734565b9050919050565b600061377382613756565b9050919050565b61378381613768565b82525050565b61379281612b27565b82525050565b60006040820190506137ad600083018561377a565b6137ba6020830184613789565b9392505050565b6137ca81612e28565b81146137d557600080fd5b50565b6000815190506137e7816137c1565b92915050565b6000806000806080858703121561380757613806612a81565b5b60006138158782880161341d565b9450506020613826878288016137d8565b93505060406138378782880161341d565b92505060606138488782880161341d565b91505092959194509250565b7f4e487b7100000000000000000000000000000000000000000000000000000000600052601160045260246000fd5b600061388e82612e28565b915061389983612e28565b9250826b7fffffffffffffffffffffff04821160008413600084131616156138c4576138c3613854565b5b817fffffffffffffffffffffffffffffffffffffffff800000000000000000000000058312600084126000841316161561390157613900613854565b5b827fffffffffffffffffffffffffffffffffffffffff800000000000000000000000058212600084136000841216161561393e5761393d613854565b5b826b7fffffffffffffffffffffff058212600084126000841216161561396757613966613854565b5b828202905092915050565b7f426964206d75737420626520686967686572207468616e206d696e696d756d2060008201527f7374657000000000000000000000000000000000000000000000000000000000602082015250565b60006139ce602483612eed565b91506139d982613972565b604082019050919050565b600060208201905081810360008301526139fd816139c1565b9050919050565b6000613a0f82612e28565b9150613a1a83612e28565b9250827fffffffffffffffffffffffffffffffffffffffff80000000000000000000000001821260008412151615613a5557613a54613854565b5b826b7fffffffffffffffffffffff018213600084121615613a7957613a78613854565b5b828203905092915050565b6000613a8f82612e28565b9150613a9a83612e28565b9250816b7fffffffffffffffffffffff03831360008312151615613ac157613ac0613854565b5b817fffffffffffffffffffffffffffffffffffffffff800000000000000000000000038312600083121615613af957613af8613854565b5b828201905092915050565b6000608082019050613b19600083018761377a565b613b266020830186612e5f565b613b336040830185612e5f565b8181036060830152613b458184612d11565b905095945050505050565b6000613b5b82613756565b9050919050565b613b6b81613b50565b82525050565b7f3078000000000000000000000000000000000000000000000000000000000000600082015250565b6000613ba7600283612cbc565b9150613bb282613b71565b602082019050919050565b6000608082019050613bd26000830186613b62565b8181036020830152613be48185612d11565b90508181036040830152613bf781613b9a565b90508181036060830152613c0b8184612d11565b9050949350505050565b60008060408385031215613c2c57613c2b612a81565b5b600083015167ffffffffffffffff811115613c4a57613c49612a86565b5b613c5685828601613517565b925050602083015167ffffffffffffffff811115613c7757613c76612a86565b5b613c8385828601613517565b9150509250929050565b6000608082019050613ca2600083018761377a565b613caf6020830186612e5f565b613cbc6040830185612e35565b8181036060830152613cce8184612d11565b90509594505050505056fea26469706673582212205b9406af9a27bca8b4c4440623a3e438a306647e0f4ec8b520f87cb9b9997c1464736f6c63430008090033",
  "linkReferences": {},
  "deployedLinkReferences": {}
}